:100000000C94C6050C940D060C940D060C940D066C
:100010000C940D060C940D060C940D060C940D0614
:100020000C940D060C940D060C9401260C94D3260A
:100030000C940D060C940D060C940D060C940D06F4
:100040000C940D060C94ED200C940D060C940D06EA
:100050000C94C0100C9479200C940D060C940D0691
:100060000C940D060C940D060C940D060C940D06C4
:100070000C940D060C940D060C940D060C940D06B4
:100080000C940D060C940D060C940D060C940D06A4
:100090000C940D060C940D060C940D060C940D0694
:1000A0000C940D060C940D060C940D064F0D3D0D91
:1000B000560D9F0B080E080E3A0D080E080E850D02
:1000C000080E9B0D080E080E080E080E080EC90D2E
:1000D000080E080EB60D080E710D080E940B020ED8
:1000E000020E020E020E020E020E020E020E020E90
:1000F000040E080E4F0D330D080E080E080E080EE4
:10010000080E080E080E080E080E080E040E080E43
:10011000080E3A0D080E000E000E000E000E000E26
:10012000000E000E000E000E040E211023102810E9
:100130002B102E1031103410B016B016E216E21645
:100140002F175618561856184D17E617F717F717A2
:10015000F218F21804190419FB18041904190419E7
:10016000F218F2180019041904190019402767271A
:100170005F2867275F28B327D6275F282D283C28CC
:1001800029001E001F00200021002200230024005F
:100190002500260027002D002E0031002B00140022
:1001A0001A000800150017001C0018000C001200AF
:1001B00013002F0030003500E00004001600070097
:1001C00009000A000B000D000E000F003300340080
:1001D00028002A00E1001D001B0006001900050090
:1001E00011001000360037003800E5000151000012
:1001F0000000E200E3000000000000002C0000000E
:1002000000000000E700E60000000000A5003A0042
:100210003B003C003D003E003F00400041004200EA
:100220004300440045004900390000000000000080
:100230000000000000000000460047004800520097
:1002400000004C000000A900AA00A800B0000000B7
:10025000550054004A004B0050004F0000000000C1
:1002600000000000000000000000000057005600E1
:100270004D004E0051000000010000000000000091
:10028000000000000000000000000000000000006E
:10029000AD0000000000000044454255473A20648C
:1002A000697361626C65642E0A0044454255473AA1
:1002B00020656E61626C65642E0A000A002530318B
:1002C0003662003A200025303258000A722F63202F
:1002D000303132333435363738394142434445467C
:1002E0000A003F00433E20004C25640A0074696DFB
:1002F00065725F72656164333228293A2025303493
:100300006C580A006B6579626F6172645F69646C36
:10031000653A2025580A006B6579626F6172645FE7
:1003200070726F746F636F6C3A2025580A00686FA3
:1003300073745F6B6579626F6172645F6C6564731F
:1003400028293A2025580A000A092D20537461747F
:100350007573202D0A004743433A20352E342E3042
:10036000204156522D4C4942433A20322E302E30F5
:10037000204156525F415243483A20617672350A15
:10038000004F5054494F4E533A204C55464120455A
:10039000585452414B455920434F4E534F4C4520E2
:1003A000434F4D4D414E4420343039360A004255BA
:1003B000494C443A2020284A756C2031352032308F
:1003C0003231290A005649443A20307830344438D2
:1003D0002868696E657962757368206B6579626FEC
:1003E0006172647329205049443A20307845424272
:1003F000452868363029205645523A20307830302A
:1004000030310A000A092D2056657273696F6E201B
:100410002D0A000A092D20436F6E736F6C65202D25
:100420000A4553432F713A09717569740A000A0924
:100430002D204D61676963202D0A443A09446562A5
:100440007567204D65737361676520546F67676CCE
:10045000650A583A094D617472697820446562757D
:1004600067204D6F646520546F67676C65202D2091
:1004700053686F77206B657970726573736573204D
:10048000696E206D617472697820677269640A4BC5
:100490003A094B6579626F617264204465627567E1
:1004A00020546F67676C65202D2053686F77206B31
:1004B00065797072657373207265706F72740A4D1E
:1004C0003A094465627567204D6F75736520546FF6
:1004D00067676C650A563A0956657273696F6E0AEA
:1004E000533A095374617475730A433A094163744A
:1004F000697661746520436F6E736F6C65204D6F14
:1005000064650A46312D4631303A09537769746380
:100510006820746F204C6179657220302D39202855
:10052000463130203D204C30290A302D393A0953CC
:10053000776974636820746F204C6179657220302C
:100540002D390A47524156453A0953776974636811
:1005500020746F204C6179657220302028616C74A2
:1005600065726E617465290A423A094A756D702098
:10057000746F20426F6F746C6F616465720A4553CB
:10058000433A094A756D7020746F20426F6F746C26
:100590006F616465722028616C7465726E61746548
:1005A000290A453A095072696E7420454550524FE8
:1005B0004D2053657474696E67730A42535041430A
:1005C000453A09436C65617220454550524F4D0ACA
:1005D0005A3A09536C656570204C45442054657344
:1005E000740A000A002575002E6C6576656C3A2049
:1005F000000A002575002E656E61626C653A200068
:100600000A0025303258006261636B6C6967687458
:100610005F636F6E6669672E7261773A20000A0029
:100620002575002E6E6B726F3A20000A002575004A
:100630002E737761705F6261636B736C6173685F67
:100640006261636B73706163653A20000A0025750F
:10065000002E737761705F67726176655F657363A3
:100660003A20000A002575002E6E6F5F6775693AA3
:1006700020000A002575002E737761705F72616C2F
:10068000745F726775693A20000A002575002E7341
:100690007761705F6C616C745F6C6775693A20009C
:1006A0000A002575002E737761705F7263746C5F4A
:1006B000726775693A20000A002575002E7377610C
:1006C000705F6C63746C5F6C6775693A20000A0038
:1006D0002575002E636170736C6F636B5F746F5F61
:1006E000636F6E74726F6C3A20000A002575002EDD
:1006F000737761705F636F6E74726F6C5F6361704C
:10070000736C6F636B3A20000A0025303258006B1F
:1007100065796D61705F636F6E6669672E72617770
:100720003A20000A002575002E6D6F7573653A201A
:10073000000A002575002E6B6579626F6172643A5C
:1007400020000A002575002E6D61747269783A20C8
:10075000000A002575002E656E61626C653A200006
:100760000A00253032580064656275675F636F6EFA
:100770006669672E7261773A20000A002575006469
:10078000656661756C745F6C617965723A20003FD3
:10079000000A6D6F7573653A206F66660A000A6D10
:1007A0006F7573653A206F6E0A000A6B6579626F28
:1007B0006172643A206F66660A000A6B6579626F3F
:1007C0006172643A206F6E0A000A6D617472697812
:1007D0003A206F66660A000A6D61747269783A2081
:1007E0006F6E0A000A64656275673A206F66660A72
:1007F000000A64656275673A206F6E0A000A0A4A49
:10080000756D70696E6720746F20626F6F746C6FA6
:10081000616465722E2E2E2000433E2000436C65DD
:100820006172696E6720454550524F4D0A006565FB
:10083000636F6E6669673A0A00536C656570204C99
:10084000454420546573740A006261636B6C696788
:10085000687420627265617468696E672064697388
:1008600061626C650A006261636B6C696768742021
:10087000627265617468696E6720656E61626C653D
:100880000A006261636B6C696768742062726561FB
:100890007468696E6720746F67676C653A202575A8
:1008A0000A006261636B6C696768742073746570B9
:1008B0003A2025750A006261636B6C696768742071
:1008C00064697361626C650A006261636B6C69677D
:1008D000687420656E61626C650A006261636B6CAE
:1008E0006967687420746F67676C653A2025750ABC
:1008F000006261636B6C696768742064656372652C
:100900006173653A2025750A006261636B6C6967E3
:10091000687420696E6372656173653A2025750A93
:1009200000000000000000000000000001010203C0
:10093000040506080A0C0F1114181C2024292E3354
:10094000393F464C535B626A7179818A929AA2AAB6
:10095000B2B9C1C8CFD5DCE1E7EBF0F4F7FAFCFDA2
:10096000FEFFFEFDFCFAF7F4F0EBE7E1DCD5CFC8C3
:10097000C1B9B2AAA29A928A8179716A625B534C18
:10098000463F39332E2924201C1814110F0C0A0855
:100990000605040302010100000000000000000041
:1009A000000A002530325820006B6579626F617251
:1009B000645F7265706F72743A20000A00253032ED
:1009C00058006B6579626F6172645F7365745F6C08
:1009D00065643A20004F6E6573686F743A206163F6
:1009E000746976653A2025640A0000000000000062
:1009F0000000000000010204060A0F17202C3A4AEA
:100A00005D71879DB3C7DAE9F5FCFFFCF5E9DAC74C
:100A1000B39D87715D4A3A2C20170F0A0604020124
:100A2000000000000000000000005B735D004B65EB
:100A300079626F6172642073746172742E0A005B54
:100A4000575D005B535D005B525D005B445D005B86
:100A5000435D00080368003600300000002803688A
:100A60000069006E0065007900620075007300681F
:100A70000020006B006500790062006F0061007269
:100A8000006400730000000403090409025B000312
:100A90000100A0FA0904000001030101000921116D
:100AA0000100012240000705810308000A09040132
:100AB000000103000000092111010001223200079A
:100AC00005820320000A0904020002030000000955
:100AD00021110100012222000705830320000107E4
:100AE0000503032000011201100100000008D804D2
:100AF000BEEB0100010200010631FF0974A10109EA
:100B000075150026FF0095207508810209761500ED
:100B100026FF00952075089102C005010980A101FA
:100B2000850319012AB700150126B7009501751034
:100B30008100C0050C0901A101850419012AA00248
:100B4000150126A002950175108100C00501090656
:100B5000A101050719E029E7150025019508750190
:100B600081029501750881010507190029FF15000B
:100B700026FF0095067508810005081901290595CD
:100B80000575019102950175039101C011241FBEE5
:100B9000CFEFDAE0DEBFCDBF04B603FE27C0809101
:100BA0006B0290916C02A0916D02B0916E02873041
:100BB000904BA740B04BD1F410926B0210926C0294
:100BC00010926D0210926E0214BE84B7877F84BFAC
:100BD0000FB6F894A89580916000886180936000BA
:100BE000109260000FBEE0E0F8E3099511E0A0E08C
:100BF000B1E0E0E9F2E502C005900D92A239B1073B
:100C0000D9F722E0A2E9B1E001C01D92AB36B207EC
:100C1000E1F70E9434230C9446290C940000FF93C2
:100C2000EF93E0919201F0919301309709F00995CB
:100C3000EF91FF910895FC018591803011F0EFDF75
:100C4000FBCF0895FF27E0E230E247FF0CC041955B
:100C500097FF09C0EDE26095709580959095611DB4
:100C6000711D811D911D27FF02C0219530E350E2C7
:100C7000AA27660F771F881F991FAA1FA41710F0B5
:100C8000A41B63955A95A9F7AA3008F0A95FA05D47
:100C9000AF93F395611571058105910541F7ED322B
:100CA00011F4EF93F395F21718F43F93F395FBCFFC
:100CB0008F91B5DFFA95E1F70895E991F991859162
:100CC000803021F0853219F0AADFF9CF089520E0B5
:100CD000E89455915532C1F3503311F4689455910D
:100CE0005A3348F4505390F3220F022E220F220F52
:100CF000200D250FF4CF0EF421958991999153364B
:100D000019F3533729F1533559F1BC018827992735
:100D1000E8945C3621F48991999168945591543600
:100D200039F446EF7EF077FF0DC08FEF9FEF0AC0DA
:100D300055374AE039F0583540E121F0523642E06B
:100D400009F00895FF93EF937DDFEF91FF91B7CF07
:100D5000FF93EF93FC0181918030B9F360DFFBCF0B
:100D6000FF93EF9368DFF1CFDF93CF93CDB7DEB77B
:100D70002596A3DFCF91DF9108953E9A0895CF93F2
:100D8000C82F0E94D507882329F0C1FD02C0469ACA
:100D900001C0469881E0CF91089581E0089581E0F7
:100DA00008950C94CF0608950C94D3061F93CF9307
:100DB000DF9300D000D01F92CDB7DEB749835A83AE
:100DC0006B833091B80189819A81311114C06623F7
:100DD00059F0222349F00E94AE1D182F682F8981F7
:100DE0009A810E94571D03C00E94821D182F69819D
:100DF0007A81812F04C00E94AE1D69817A810F9093
:100E00000F900F900F900F90DF91CF911F910C9446
:100E1000E007FC01262F408151816281738184812A
:100E20000C94D606CF93DF93EC0160E00E94090793
:100E3000BE01DF91CF910C94D4060E94D3090E9489
:100E40002F110C94BD060C94520A08950E94E018CC
:100E50000E9425072FEF84E39CE0215080409040C2
:100E6000E1F700C000000C949F200F931F93CF93D5
:100E7000DF938C0161E00E940907EC01B8010E9438
:100E8000D106882309F462C0B801CE010E94121075
:100E9000882309F45BC0B801CE010E94B8118823F1
:100EA00009F454C0B801CE010E940A12882309F443
:100EB0004DC0B801CE010E943513882309F446C005
:100EC000F80182818823D9F1CF3D8CE5D80779F1EB
:100ED00040F4C115FCE5DF0791F0C130DC4591F02D
:100EE0002EC0CC35EDE5DE0741F1CD35FDE5DF0760
:100EF00009F1CB35DD4519F50E945E1E20C00E9428
:100F0000260724C080913302C82FC095C170C0FB52
:100F100080F980933302CC2329F08AEA92E00E9480
:100F20001B0614C088E992E00E941B0610C00E94B4
:100F3000C41F0CC00E94551E02C00E94611EC80141
:100F4000DF91CF911F910F910C94CD06C0E08C2FB3
:100F5000DF91CF911F910F9108958295982F9373F0
:100F600044E0949F900111248C7C86958695282BD3
:100F7000822F8575880F2A7A2695822B0895CF9324
:100F8000DF93D92F0E94AD07C82F8D2F0E94AD0788
:100F90002C2F30E0322F2227A901482BCA01DF91E4
:100FA000CF91089508950C94D20781E00895CF93CE
:100FB000C82F0E94D3078C2F0E94BF06CF9108959F
:100FC00026E4829FC0011124FC012EE0729FE00DF7
:100FD000F11D1124E60FF11DEE0FFF1FE058FE4F2B
:100FE000859194910895CF93DF930E94E0070E942A
:100FF000E408EC0181159245F0F5C11581E5D807AB
:1010000008F0A9C0C83ED10528F5C03ED10508F0BA
:10101000D7C0C83AD10578F4C53AD10508F074C0F4
:10102000C130D10509F4CCC008F4C8C0C430D10522
:1010300008F0C6C0C3C0CF3BD10508F0BFC0C85A36
:10104000D0E0CC0FDD1FC25FDE4F0990D881C02DEC
:10105000D464B6C0C11590E5D90708F060C0C115C9
:1010600020E4D20708F058C0CE019A9581159F411F
:1010700008F4A6C0A3C0C11586E5D80718F5C115A8
:1010800095E5D90708F080C0C11524E5D20708F01E
:1010900076C09E01237033278C2F86958695C115C7
:1010A000D34508F05DC0C1E0D0E002C0CC0FDD1F29
:1010B0002A95E2F720E2829FC0011124C82BD92B88
:1010C000DC687EC0C1152AE5D20778F4C11589E530
:1010D000D80708F063C0C11598E5D90708F46EC0B9
:1010E000DC2FCC27C06FD06A6BC0CE019056811523
:1010F000904208F063C08D2F8F710E947809DD2720
:10110000D0628F71D82B5CC0C55AD0E0C45CDE4F72
:10111000C881D0E0D06454C0DF70D06A51C0CE0125
:1011200074E0969587957A95E1F783709C2F93707C
:1011300021E030E002C0220F331F9A95E2F73C68AD
:10114000382BCF70C695C69580E2C89FE001112468
:10115000C22BD32B35C0DC2FCC27C16FD06A30C057
:10116000C1E0D0E002C0CC0FDD1F2A95E2F720E2FB
:10117000829FC0011124C82BD92BDA6821C0DC2F33
:10118000CC27C46FD06A1CC08C2F0E9478098F7145
:10119000C82FD0E0DC2FCC27D06212C08C2F8F70EC
:1011A0000E94780994E0D695C7959A95E1F7CF709B
:1011B000D0E0DC2FCC27D069C82B02C0C0E0D0E043
:1011C000CE01DF91CF9108958238910569F1B0F495
:1011D0008133910509F46DC048F48932910509F411
:1011E00063C08A32910509F469C008958533910579
:1011F00009F455C089339105B9F00895833E9105EE
:1012000069F138F4803E9105B1F0823E910509F113
:101210000895863E9105A9F1873E9105B9F1843E76
:10122000910509F064C023C02091430220FD4FC006
:1012300021FD4DC008958091430280FD44C08091FE
:10124000440280FF44C08091430284FD42C083EE8B
:101250004DC08091430282FF38C0F5CF8091430298
:1012600082FD33C08091440280FD31C0ECCF80917B
:10127000440281FF32C08091430284FD2AC087EE80
:1012800035C08091430283FF26C0F5CF8091430291
:1012900083FD21C08091440281FD1FC0ECCF80916D
:1012A000430285FD1CC01DC08091430285FD19C00D
:1012B00016C08091430286FD16C017C0809143027C
:1012C00086FD13C010C089E311C082EE0FC080EE0E
:1012D0000DC080E00BC086EE09C084EE07C089E235
:1012E00005C085E303C08AE201C081E390E0089570
:1012F0009091430292FF0DC0282F2871283019F4D5
:10130000877F846006C0282F2471243011F48B7FDE
:10131000886093FF0DC0282F2871283119F4877E2B
:10132000846106C0282F2471243111F48B7E8861DA
:101330002091440220FF0DC0382F3871383019F445
:10134000877F816006C0382F3171313011F48E7F74
:10135000886021FF0DC0282F2871283119F4877E5D
:10136000816106C0282F2171213111F48E7E8861A0
:1013700094FD877E08950C94161F0E949D0A8FE3AA
:101380009CE90197F1F700C000000E949D0A80E0EF
:101390000E94F70980FF04C00E94BB090C949F20A3
:1013A00008950C94BD090E941C1F811102C00E9467
:1013B000C41F0E94271F809333020E942F1F909307
:1013C0004402809343020E94D1090E942B1F682F80
:1013D00070E080E090E00E94591C60911E027091C4
:1013E0001F0280912002909121020C94911CE82F01
:1013F000F0E0EE0FFF1FE15BFD4F808191810895CA
:10140000CF92DF92EF92FF920F931F93CF93DF93D0
:101410008BEC92E00E941B068FE4E82E82E0F82E0F
:10142000C0E0D0E096ECC92E92E0D92E0DEB12E090
:10143000DF93CF93DF92CF920E94B40683EC92E0C9
:101440000E941B06F701819191917F010E94BF07C5
:101450009F938F931F930F930E94B4068BEB92E0A0
:101460000E941B0621968DB79EB708960FB6F8947A
:101470009EBF0FBE8DBFC530D105D1F6DF91CF9194
:101480001F910F91FF90EF90DF90CF90089580EA29
:101490008A95F1F7089500C008950C94470A0895BD
:1014A0000C944F0A0C94500AF894E82FE295EF70D0
:1014B000F0E031A1282F2F7081E090E001C0880F6B
:1014C0002A95EAF7982F9095932391A392A1892BBF
:1014D00082A3789408950F931F93CF93DF9386E3AD
:1014E0000E94540A85E30E94540A84E30E94540A2D
:1014F00087E90E94540A86EC0E94540ACFE3D1E0A7
:101500000DE411E089910E94540A0C171D07D1F7D0
:10151000E5E4F2E0AFE4B2E0119211921D921D9267
:1015200082E0EF34F807C1F785E00E942B0BDF91D2
:10153000CF911F910F910C941D077F928F929F92D4
:10154000AF92BF92CF92DF92EF92FF920F931F93D1
:10155000CF93DF93CDE4D1E085E4A82E82E0B82ECE
:101560009FE4E92E92E0F92E712C01E010E06E016B
:101570008881F894E82FE295EF70F0E021A18F7058
:10158000A80102C0440F551F8A95E2F7CA01922FA5
:10159000982B91A392A18095892382A378940E948D
:1015A0004B0AEFE3F1E020E030E0812C912C4191F7
:1015B000A42FA295AF70B0E090968C9190E04F7000
:1015C00002C0959587954A95E2F780FD08C0C8014D
:1015D000022E02C0880F991F0A94E2F702C080E031
:1015E00090E0882A992A2F5F3F4F2E303105F9F677
:1015F0002196F60180810E94540A0E944D0AF5014D
:10160000808191818816990621F09182808281E003
:1016100001C080E0782AF2E0AF0EB11CEA14FB04AE
:1016200009F0A5CF272D45E06FE472E085E492E054
:101630000E942C0B0E942307872DDF91CF911F91D1
:101640000F91FF90EF90DF90CF90BF90AF909F9061
:101650008F907F9008950895FF920F931F93CF93DB
:10166000DF93F82E092F162FD72FC42F222349F0EE
:1016700081E0809396010E9452209093950180937F
:101680009401809196018823D9F0809194019091E2
:1016900095010E946A20069798F0EF2DF02FA12F58
:1016A000BD2F80E090E04C2F50E08417950734F474
:1016B000219131912D933D930196F7CF1092960190
:1016C000DF91CF911F910F91FF900895CF93C82F75
:1016D0001F928F9388EE92E09F938F930E94B4069F
:1016E00081E090E0A0E0B0E0BC01CD0104C0660F55
:1016F000771F881F991FCA95D2F70E94591C0F9017
:101700000F900F900F90CF910C94E018CF93DF9330
:10171000482F50E0FA013597EF33F10508F078C211
:10172000EA5AFF4F0C94E42889E398E00E941B06D4
:101730000E94E6200E946B130E94D70792C18EE29E
:1017400098E00E941B068FE797E00E941B060E940C
:101750002B1F1F928F938CE797E09F938F930E948C
:10176000B4068AE797E00E941B060E94271FC82F35
:1017700087E697E00E941B061F92CF9382E697E0D0
:101780009F938F930E94B40680E697E00E941B0609
:1017900086E597E00E941B068C2F81701F928F9325
:1017A00083E597E09F938F930E94B40681E597E0CD
:1017B0000E941B0687E497E00E941B06C1FB882756
:1017C00080F91F928F9384E497E09F938F930E94F8
:1017D000B40682E497E00E941B0686E397E00E942D
:1017E0001B06C2FB882780F91F928F9383E397E043
:1017F0009F938F930E94B40681E397E00E941B069B
:1018000088E297E00E941B06C3FBCC27C0F91F9219
:10181000CF9385E297E09F938F930E94B40683E273
:1018200097E00E941B060E942F1FEC018FE097E0BB
:101830000E941B06DF93CF938AE097E09F938F93DC
:101840000E94B40688E097E00E941B068FEE96E0A7
:101850000E941B068C2F81701F928F938CEE96E056
:101860009F938F930E94B4068DB79EB780960FB654
:10187000F8949EBF0FBE8DBF8AEE96E00E941B06B5
:1018800083ED96E00E941B06C1FB882780F91F921A
:101890008F9380ED96E09F938F930E94B4068EEC19
:1018A00096E00E941B068CEB96E00E941B068D2F93
:1018B00081701F928F9389EB96E09F938F930E9484
:1018C000B40687EB96E00E941B0685EA96E00E942C
:1018D0001B06D695D1701F92DF9382EA96E09F9304
:1018E0008F930E94B40680EA96E00E941B068EE861
:1018F00096E00E941B06C2FB882780F91F928F93F7
:101900008BE896E09F938F930E94B40689E896E057
:101910000E941B0687E796E00E941B06C3FB8827F0
:1019200080F91F928F9384E796E09F938F930E9494
:10193000B40682E796E00E941B0688E696E00E94C5
:101940001B06C4FB882780F91F928F9385E696E0DB
:101950009F938F930E94B40683E696E00E941B0635
:1019600081E596E00E941B06C5FB882780F91F923F
:101970008F938EE496E09F938F930E94B4068CE43D
:1019800096E00E941B0680E396E00E941B06C6FBC1
:10199000882780F91F928F938DE296E09F938F9313
:1019A0000E94B4068DB79EB780960FB6F8949EBF7E
:1019B0000FBE8DBF8BE296E00E941B0683E296E08D
:1019C0000E941B06C7FBCC27C0F91F92CF9380E271
:1019D00096E09F938F930E94B4068EE196E00E945A
:1019E0001B060E945E0EC82F87E096E00E941B0631
:1019F0001F92CF9382E096E09F938F930E94B4064C
:101A000080E096E00E941B0686EF95E00E941B0690
:101A10008C2F81701F928F9383EF95E09F938F930C
:101A20000E94B40681EF95E00E941B0688EE95E0C7
:101A30000E941B06C695C695C6951F92CF9385EE4C
:101A400095E09F938F930E94B40683EE95E00E94E9
:101A50001B068DB79EB740960FB6F8949EBF0FBE7B
:101A60008DBFC1E0DAC08DE198E00E941B060E94A4
:101A7000C41FF7CF8EE294E05BC080913302817F78
:101A80008E7F8093330283E194E00E941B0689E1FC
:101A900098E00E941B0681E080939701E2CF8DEFD2
:101AA00097E00E941B060E942607DBCF809133023D
:101AB000C82FC095C170C0FB80F980933302CC233E
:101AC00029F081EF97E00E941B06A7C084EE97E003
:101AD0000E941B0680913302897F877F80933302A7
:101AE000C0CF9091330291FBCC27C0F981E0C82789
:101AF000892FC0FB81F980933302CC2319F087ED45
:101B000097E029C089EC97E013C09091330292FBD3
:101B1000CC27C0F981E0C827892FC0FB82F98093C8
:101B20003302CC2319F08AEB97E015C08AEA97E0DC
:101B30000E941B0696CF9091330293FBCC27C0F9ED
:101B400081E0C827892FC0FB83F980933302CC231F
:101B500051F08EE997E00E941B068091330281606C
:101B6000809333025AC081E997E0E2CF84E094E0A9
:101B70000E941B0685EC93E00E941B068EEA93E010
:101B80000E941B0681E893E00E941B0686E593E015
:101B9000CFCF88E493E00E941B060E946B131F9234
:101BA0008F938EE293E09F938F930E94B40680916F
:101BB0000D011F928F9387E193E09F938F930E9473
:101BC000B406809142021F928F9384E093E09F932A
:101BD0008F930E94B4060E945E209F938F937F9301
:101BE0006F938DEE92E09F938F930E94B4068DB712
:101BF0009EB742960FB6F8949EBF0FBE8DBF31CFF1
:101C0000895303C08D5101C080E00E94660B29CF2B
:101C10008FE897E00E941B06C0E08C2FDF91CF91E8
:101C2000089580E008950C94110ECF93C82F8091F1
:101C30009701882319F0813031F038C00E94641E6A
:101C40008232B1F504C00E94641E823261F48C2F8E
:101C50000E94130E811104C08C2F0E94860B24C099
:101C600081E090E021C08C2F0E94110E81111BC0D9
:101C7000C43189F018F4CB3029F010C0C93259F0C2
:101C8000C83361F483E194E00E941B0684EE92E085
:101C90000E941B0608C0109297010CC082EE92E0D1
:101CA0000E941B0607C081E0817006C01092970158
:101CB00080E002C080E0F8CFCF91089586E090E008
:101CC0000C940429682F86E090E00C9412298091EE
:101CD000590284708961809359020C94620E80913C
:101CE000590286958695869508958091590281FDC1
:101CF00013C08260809359020E94620E8091330269
:101D000080FF08C086E698E09F938F930E94B406F8
:101D10000F900F900C94AB1008958091590281FFA1
:101D200013C08D7F809359020E94620E809133020E
:101D300080FF08C089E498E09F938F930E94B406C7
:101D40000F900F900C94B7100895CF93C091590243
:101D5000C695C1708091330280FF0CC01F92CF9353
:101D600082E898E09F938F930E94B4060F900F90A3
:101D70000F900F90CC2319F0CF910C948D0ECF9132
:101D80000C94750E8091590286958170089580910A
:101D9000000108950E941C1F811104C00E94C41FED
:101DA0000E94670E0E945E0E80935902282F26958E
:101DB0002695269530E02430310524F0877088611F
:101DC000809359028091590280FF04C086958695C0
:101DD000869501C080E00C947A1020915902822FE0
:101DE000869586958695482F50E04330510554F4EA
:101DF0008F5F982F990F990F990F822F8770892BDA
:101E000080935902809159028160809359020E9407
:101E1000620E8091330280FF11C080915902869535
:101E2000869586951F928F9389E099E09F938F9373
:101E30000E94B4060F900F900F900F90809159025E
:101E40008695869586950C947A1080915902982FE4
:101E5000969596959695A1F0915E990F990F990F89
:101E60008770892B80935902887F91E009F490E074
:101E70008091590290FB80F9809359020E94620E72
:101E80008091330280FF11C080915902869586951A
:101E900086951F928F9381EF98E09F938F930E9476
:101EA000B4060F900F900F900F9080915902869575
:101EB000869586950C947A108091590280FD1FC0FA
:101EC000816080935902813019F489E0809359022E
:101ED000809159020E94620E8091330280FF08C0F7
:101EE00089EC98E09F938F930E94B4060F900F9017
:101EF000809159028695869586950C947A1008955E
:101F00008091590280FF14C08E7F809359020E94F5
:101F1000620E8091330280FF08C086EB98E09F93A9
:101F20008F930E94B4060F900F9080E00C947A106B
:101F30000895CF93C0915902C1708091330280FF00
:101F40000CC01F92CF938BED98E09F938F930E94CC
:101F5000B4060F900F900F900F90CC2319F0CF91F3
:101F60000C94800FCF910C945C0F90915902892FA3
:101F70008695869586958F5F8F719770843038F43B
:101F8000880F880F880F892B8093590202C0909385
:101F9000590280915902887F91E009F490E0809184
:101FA000590290FB80F9809359020E94620E809141
:101FB000330280FF11C080915902869586958695DF
:101FC0001F928F9382EA98E09F938F930E94B406AA
:101FD0000F900F900F900F908091590286958695E3
:101FE00086950C947A10843008F083E09091590221
:101FF0009770282F220F220F220F922B90935902B5
:10200000987F21E009F420E09091590220FB90F99B
:10201000909359020C947A100E94F30F8091590208
:102020000C94620EFC01DB0112968C918823F9F06E
:10203000EC5BFC45E730F105D8F4EB56FF4F0C9410
:10204000E42883E001C080E00E940C1080E0089545
:102050000E94250FFBCF0E94ED0EF8CF0E94990F32
:10206000F5CF0E94B50FF2CF0E94A50EEFCF81E011
:102070000895279A2F9808952F980895CF92DF9268
:10208000EF92FF928C3724E1920728F469E070E028
:102090000E94AE2829C0A0E0B0E08A50974DAF4F13
:1020A000BF4F6627782F892F9A2F25EF38E241E01E
:1020B00050E00E94C22869017A01CA01B9010E9458
:1020C00092289B01AC01C701B6010E949228BB2750
:1020D000A92F982F872F009721E0A207B10511F0B3
:1020E000BC0102C06FEF7FEFCB01FF90EF90DF905C
:1020F000CF900895CF93C82F843050F4811109C038
:1021000080918000877F809380000E943C1006C0F1
:10211000C3E0809180008860809380002C2F30E0A5
:10212000AFEFBFEF0E94EA2823E030E040E050E04C
:102130000E94C228B42FA32F922F8827892F9A2F6D
:10214000AB2FBB270E943E1090938D0080938C0094
:10215000CF910895089510929901109298011092CC
:102160009A01EFE6F0E08081816080830895EFE6D8
:10217000F0E080818E7F80830E946F0E0C947A1035
:102180001F920F920FB60F9211242F933F934F93EC
:102190005F936F937F938F939F93AF93BF93CF93EF
:1021A000EF93FF930E94C70E4091980150919901BF
:1021B0004F5F5F4F94EF899F90011124CA01B901CD
:1021C0000E94AE289093990180939801B901660FFF
:1021D000672F661F770B71950E94AE286F778091ED
:1021E0009A01823019F4603451F404C0813039F41A
:1021F0006F3729F480916F008E7F80936F00E62FF8
:10220000F0E0EF5DF64FC4910E946F0E282F41E081
:1022100051E0C49FC001C59F900D112463E070E0A0
:102220000E94AE28269FC001279F900D11240E9476
:102230003E1090938D0080938C00FF91EF91CF9191
:10224000BF91AF919F918F917F916F915F914F91CE
:102250003F912F910F900FBE0F901F9018950E94E5
:1022600039108AE08093800089E1809381008FEFAC
:102270009FEF90938700809386000E94CA0E0E9471
:10228000C20E81110C94AB1008950F931F93CF933E
:10229000DF93C42FD22FFC0182818823C9F04093A1
:1022A0009D010E94522090939C0180939B0180E2AB
:1022B0008C0F883008F057C0C77081E001C0880FCC
:1022C000CA95EAF7DF91CF911F910F910C946B168D
:1022D00080919D01481330C080919B0190919C0199
:1022E0000E946A20883C910538F510E21D0FCD1739
:1022F000B9F080E28C0F883040F4C77081E001C0F3
:10230000880FCA95EAF70E947216183028F581E006
:102310009D2F977001C0880F9A95EAF70E946B165F
:10232000802F0E9462161830F0F4D77081E001C04F
:10233000880FDA95EAF70AC080E28C0F883098F4AB
:10234000C77081E001C0880FCA95EAF7DF91CF918D
:102350001F910F910C947216802FDF91CF911F91D6
:102360000F910C946216DF91CF911F910F910895F8
:102370000F939C01CB01243F4CE5340731F188F4E5
:10238000293DFCE53F07D9F02A3D4CE5340779F1BA
:10239000283D3C45A9F506E221EE41EE68ED7CE5DD
:1023A0002BC0263FFCE53F07E1F0A8F0273F3C4566
:1023B00039F507E225EE46EE67EF7CE51DC007E242
:1023C00025EE45EE69ED7CE517C006E221EE40EE14
:1023D00064EF7CE511C007E225EE44EE65EF7CE595
:1023E0000BC006E221EE42EE66EF7CE505C008E296
:1023F00021E045EE6AED7CE50E94451180E008C0D1
:10240000FC018281882319F010929D0101C081E0B6
:102410000F910895CF93DF93EC01FB018281882314
:1024200009F41FC1C230FCE5DF0708F41BC1C63147
:102430009CE5D90738F09E012B5F3C4529303105DA
:1024400008F010C10E942F1F909344028093430212
:10245000C031ECE5DE0709F4C3C008F041C0C83064
:102460008CE5D80709F49AC0F0F4C430ECE5DE0737
:1024700009F487C068F4C2308CE5D80709F477C046
:10248000C330DC4509F0E3C080914302826076C02E
:10249000C630ECE5DE0709F46EC008F07BC0809121
:1024A000430288606BC0CC308CE5D80709F485C046
:1024B00068F4CA30ECE5DE0709F474C008F079C0AE
:1024C0000E94E01880914302806858C0CE308CE5AD
:1024D000D80709F476C008F07FC0809143028BC012
:1024E000CC3FECE5DE0709F44FC018F5C3318CE5AD
:1024F000D80709F47DC078F4C131ECE5DE0709F4B2
:1025000073C0C231DC4509F0A2C00E94E01880917E
:1025100043028F7733C0C5318CE5D80709F472C008
:1025200008F486C0CB3FDC4509F091C0809144029D
:102530003EC0C115FDE5DF0709F45FC058F4CE3F8A
:102540009CE5D90709F444C008F43FC080914402D7
:1025500082602DC0C230FDE5DF0709F475C008F4C4
:102560005DC0C330DD4509F072C080E06EC080916F
:102570004302816003C080914302806180934302E3
:1025800066C08091430211C08091440282608093B2
:1025900044025DC0809143028062F0CF809143028B
:1025A0008064ECCF8091430288608460E7CF8160D3
:1025B000EECF809143028E7FE1CF809143028D7FE9
:1025C000DDCF80914302877FD9CF8091440218C02C
:1025D000809144028D7FDBCF809143028F7ECECFEE
:1025E000809143028F7DCACF809143028F7BC6CFFB
:1025F00080914302877F8B7FC1CF809144028D7F82
:102600008E7FC5CF8091430282FB222720F991E083
:10261000922790FB82F990FB83F9B0CF809144021E
:10262000982F909591708E7F892B90FB81F9AFCF79
:102630000E94E0188091430287FB222720F991E055
:10264000922790FB87F99ACF81E00E94C61F809164
:102650004302909144020E94401F0E94E01880E0D3
:1026600001C081E0DF91CF910895CF93DF93863150
:102670009C4541F5EB010E94641E982F8A812091B0
:10268000010130910201882379F09A7A81E009F4FE
:1026900080E080939E01911102C069E201C065E370
:1026A000C9010E940D200AC080919E01811102C0C3
:1026B00069E201C065E3C9010E940F200E94A91EC2
:1026C00080E001C081E0DF91CF9108959093A40153
:1026D0008093A3010895E091A301F091A4013097A4
:1026E00021F00190F081E02D099480E00895EF92AF
:1026F000FF920F931F93CF93DF93E091A301F0918B
:10270000A4013097B1F18C010280F381E02D09958D
:102710008091330282FF2DC080FF04C089EA99E0D6
:102720000E941B06E80118E083EAE82E89E0F82EF3
:102730008091330280FF0BC088811F928F93FF929C
:10274000EF920E94B4060F900F900F900F901150CF
:1027500021961111EDCF8091330280FF0AC081EAEA
:1027600099E0DF91CF911F910F91FF90EF900C9422
:102770001B06DF91CF911F910F91FF90EF9008956D
:102780002091A1013091A2012817390771F090938F
:10279000A2018093A101E091A301F091A4013097DF
:1027A00021F00680F781E02D0994089520919F0182
:1027B0003091A0012817390771F09093A001809300
:1027C0009F01E091A301F091A401309721F00084D2
:1027D000F185E02D099408950E945E206093B40174
:1027E0007093B5018093B6019093B7016093B001E7
:1027F0007093B1018093B2019093B301089585B7AE
:10280000806885BF85B7806885BF089581E0089599
:102810000C94061408950C940A140C940A140C9445
:102820000D140C940A140C9411140C940A140E94A4
:10283000FF1381ED92E20E94C3200E9415140C94B4
:1028400013140E940B140C940A140E9449200E9435
:102850006B0A0E94CA0E0C940F14CF93C82F80915C
:10286000330282FF1EC080FF04C082EC99E00E9408
:102870001B068091330280FF0CC01F92CF938DEB1B
:1028800099E09F938F930E94B4060F900F900F9042
:102890000F908091330280FF04C08BEB99E00E947F
:1028A0001B068C2FCF910C94D7076F927F928F923B
:1028B0009F92AF92BF92CF92DF92EF92FF920F93CF
:1028C0001F93CF93DF93CDB7DEB72A970FB6F89457
:1028D000DEBF0FBECDBF0E949D0A81110E94EC1386
:1028E00036EA832E31E0932E00E010E0C02E802FD8
:1028F0000E94F7095C01F401619071904F01682614
:10290000792661147104B1F40F5F1F4F0530110572
:1029100069F78FEF89838A831B820E94522081602E
:10292000782F9D838C8349815A816B818D810E9490
:102930000B153AC08091330281FD0E94000AD12C10
:10294000EE24E394F12CC3018E219F21892B29F1E0
:102950000E9408148823A9F0DE82CF82AE20BF2017
:1029600081E0AB2809F480E088870E9452208160D2
:10297000782F9A8789874E815F8168858A850E9432
:102980000B15000F111FF801EA55FE4F8081918150
:10299000E826F926F182E08207C0D394EE0CFF1CF2
:1029A000FEE0DF12D0CFB0CF0E94AA100E946B13BE
:1029B0009091A5018917D1F00E946B138093A50116
:1029C0002A960FB6F894DEBF0FBECDBFDF91CF9130
:1029D0001F910F91FF90EF90DF90CF90BF90AF903D
:1029E0009F908F907F906F900C942D142A960FB625
:1029F000F894DEBF0FBECDBFDF91CF911F910F9135
:102A0000FF90EF90DF90CF90BF90AF909F908F900E
:102A10007F906F900895DF92EF92FF920F931F9334
:102A2000CF93DF93CDB7DEB72B970FB6F894DEBF09
:102A30000FBECDBFF42E052F162FE72ED82E611115
:102A40000E94841EFE01319686E0DF011D928A9568
:102A5000E9F77E2D4F2D502F612F8D2D9E810E94E5
:102A6000991B2B960FB6F894DEBF0FBECDBFDF913A
:102A7000CF911F910F91FF90EF90DF900895FC018F
:102A8000808191810E94F01D0895CF93882309F4DD
:102A9000A1C0C82F8238C1F40E946B1381FD9AC077
:102AA00069E380910101909102010E940D200E9432
:102AB000A91E2FEF81EE94E0215080409040E1F775
:102AC00000C0000069E319C0833801F50E946B1350
:102AD00080FD80C063E580910101909102010E9418
:102AE0000D200E94A91E2FEF81EE94E0215080401E
:102AF0009040E1F700C0000063E5809101019091F2
:102B000002010E940F20CF910C94A91E8438C1F4B9
:102B10000E946B1382FD5EC067E480910101909179
:102B200002010E940D200E94A91E2FEF81EE94E069
:102B3000215080409040E1F700C0000067E4DDCF05
:102B40008CEF8C0F813AF8F48C2F0E94150E8111B6
:102B500041C06C2F80910101909102010E94D71F0A
:102B6000882349F06C2F80910101909102010E940D
:102B70000F200E94A91E6C2F8091010190910201EB
:102B80000E940D20C0CF80E28C0F883048F4C770BF
:102B900081E001C0880FCA95EAF70E94671EB3CF93
:102BA000EBE5EC0FE33040F4F0E0E058FE4F8081BD
:102BB00090E0CF910C94C013C85AC73158F4EC2F51
:102BC000F0E0EE0FFF1FEE5AFE4F80819181CF9112
:102BD0000C94D613CF910895882309F45BC0682F15
:102BE000823879F40E946B1381FF54C069E38091AD
:102BF0000101909102010E940D200E94A91E69E32B
:102C000010C08338B1F40E946B1380FF43C063E5AA
:102C100080910101909102010E940D200E94A91E45
:102C200063E580910101909102010E940F200C94B4
:102C3000A91E843879F40E946B1382FF2BC067E4CD
:102C400080910101909102010E940D200E94A91E15
:102C500067E4E7CF8CEF860F813A18F380E2860FA6
:102C6000883048F4677081E001C0880F6A95EAF700
:102C70000E946D1EDCCF8BE5860F833020F480E050
:102C800090E00C94C013685A673120F480E090E023
:102C90000C94D61308951F93CF93DF93182FEB0155
:102CA0000E944515209741F08FE99FE00197F1F7C9
:102CB00000C000002197F6CF812FDF91CF911F91A7
:102CC0000C94EC15893319F060E070E002C060E507
:102CD00070E00C944B16882321F00E94671E0C9420
:102CE000A91E0895882321F00E946D1E0C94A91E30
:102CF0000895CF92DF92EF92FF920F931F93CF939D
:102D0000DF937C01D62FC72FFC011281058102952C
:102D10000F700E94281E882399F0112389F08C2FB0
:102D2000807F803421F080E28D0F883048F082E08F
:102D30000E94F91E0E94281E91E0D82ED92601C0BB
:102D4000D12CCC2EC2948FE0C8228C2D90E08C30F8
:102D5000910508F0ABC1FC01E456FF4F0C94E42848
:102D60008C2F807FCF70882311F0C295C07F1123F4
:102D700099F0CC2309F486C180E28D0F883010F0E1
:102D8000D11104C08C2F0E94671E03C08C2F0E949B
:102D9000771E0E94A91E76C18D2F0E94EC15CC23B0
:102DA00009F484C180E28D0F883010F0D11104C085
:102DB0008C2F0E946D1E03C08C2F0E947D1E0E94CE
:102DC000A91E74C18C2F807FCF70803211F0C29504
:102DD000C07FDD2319F0D130C9F022C0112371F07A
:102DE000002341F0013031F40E948A1E8C2B0E9496
:102DF000921E5CC10E948A1E8C2B1DC0002319F0FC
:102E0000013009F453C10E949F1E25C0112321F0F7
:102E1000063008F04BC10EC0053008F047C11BC09A
:102E2000112361F0002331F0F701858180FF2AC171
:102E30008F7085838C2F0E946B1638C1002359F048
:102E4000D93309F030C1FFEF07EE13E0F150004035
:102E50001040E1F726C18C2F0E94721627C18C2FDB
:102E600086958695837019F0813061F01FC111231A
:102E700021F08D2F9C2F937002C080E090E00E9483
:102E8000C0131CC1112321F08D2F9C2F937002C001
:102E900080E090E00E94D61311C18C2F837009F05E
:102EA00047C0111107C12D2F229526952770220F9B
:102EB000220F6D2F6F70862F90E0A0E0B0E0022E01
:102EC00004C0880F991FAA1FBB1F0A94D2F7D4FF12
:102ED00010C04FE050E060E070E004C0440F551FA8
:102EE000661F771F2A95D2F740955095609570958B
:102EF00003C040E050E0BA01C695C695C3708A0190
:102F00009B01082B192B2A2B3B2BC901B801C2307E
:102F100049F058F4C13019F00E946D1CCBC00E94DA
:102F20005B1CC8C00E947F1CC5C00E94591CC2C047
:102F3000112319F08C2F817001C08695882309F424
:102F4000B9C02D2F229526952770220F220F6D2FA5
:102F50006F70862F90E0A0E0B0E0022E04C0880FD2
:102F6000991FAA1FBB1F0A94D2F7D4FF10C04FE0CD
:102F700050E060E070E004C0440F551F661F771FEB
:102F80002A95D2F7409550956095709503C040E022
:102F900050E0BA01C695C695C3708A019B01082B03
:102FA000192B2A2B3B2BC901B801C23049F058F428
:102FB000C13019F00E94321D7DC00E94201D7AC0D0
:102FC0000E94441D77C00E94931C74C0CF701123CF
:102FD00039F08C2F0E94B91C8D2F0E946B166AC08D
:102FE0008D2F0E9472168C2F0E94DA1C63C0D23F74
:102FF00001F128F4D03F41F0D13FA1F03FC0D33FD1
:10300000F9F0D43F39F13AC0112341F0053008F00E
:103010004DC08C2F8F710E94FF1C48C0063008F0F5
:1030200045C0F7CF112339F08C2F8F710E94B91C46
:103030003DC01123C9F38C2F8F710E94DA1C36C05A
:10304000112329F08C2F8F710E94A41C2FC00E9485
:103050009F1C2CC0112349F0CF718C2F0E94B91CEA
:1030600063E08C2F0E94DE1E21C081E00E94F91EC9
:103070000230E0F082E00E94F91E18C0112331F006
:10308000002391F28D2F0E94451510C0002399F264
:10309000D93349F41FEF27EE33E011502040304080
:1030A000E1F700C000008D2F0E94EC1588EF8C0D19
:1030B000843020F40E946B130E94D707DD20C9F0F2
:1030C0000E94241E80FD15C0F70112820E941E1E60
:1030D0000E94B91CC7010E949A180E941E1EDF910F
:1030E000CF911F910F91FF90EF90DF90CF900C94B4
:1030F000DA1CDF91CF911F910F91FF90EF90DF903D
:10310000CF9008950F931F93CF93DF93EC016881C5
:1031100079818A810E94FB1D8C010E94561D0E94AC
:10312000471CB801CE010E947916DF91CF911F9103
:103130000F910895CF93DF93EC01988189812B81C2
:103140003C81232B31F08F3F31F481E09F3F19F414
:1031500003C081E001C080E080FD19C0CE010E9463
:10316000350781110CC00E94281E882381F08A81B6
:10317000882369F082E0DF91CF910C94F91ECE0193
:103180000E948218CE01DF91CF910C941207DF913B
:10319000CF91089580E090E00E94C01380E090E01D
:1031A0000E94D6130E94841E0E94871E0C94A91EA2
:1031B00080910101909102010E9411200C94CA1883
:1031C0000E94741E0C94D818E92FE295EF704E2FD0
:1031D00050E0FA013297EE30F105B0F4E855FF4FB8
:1031E0000C94E428803F91F018F4883E68F40EC0F7
:1031F000843F51F40BC0883E48F0813F29F406C05B
:1032000093FB882780F9089580E0089581E0089570
:103210000E94F01D0E94E4180895CF93DF9300D020
:1032200000D01F92CDB7DEB70F900F900F900F9088
:103230000F90DF91CF910895CF93DF9300D000D00E
:1032400000D0CDB7DEB726960FB6F894DEBF0FBE1E
:10325000CDBFDF91CF9108951F93CF93DF93C0919E
:10326000B90116E08091BA01C81799F0D0E01C9F0F
:10327000F0011D9FF00D1124E554FE4F4081518156
:1032800062817381848195810E941C192196C77087
:10329000E9CFDF91CF911F9108954091EB015091BB
:1032A000EC016091ED017091EE018091EF01909140
:1032B000F0010C941C190F931F93CF93DF9380910F
:1032C000F00182958F7009F05DC08091ED01882337
:1032D00009F458C08091B9011091BA016091EB01D5
:1032E0007091EC01C091EE01D091EF0191E06F3F40
:1032F00009F090E0292F06E0811709F443C02097D8
:1033000021F07F3F21F030E003C031E001C0322FD7
:1033100090E030FD34C0089FF001099FF00D1124AA
:10332000DF01A554BE4F11963C911197371327C06A
:103330003C91361324C012963C91129731111FC054
:1033400013964D915C9114974C1B5D0B483C5105B5
:10335000B0F48091F0018F7080618093F001E054AF
:10336000FE4F80818F70806180838BEE91E00E94A0
:103370009A18DF91CF911F910F910C942C190196FF
:103380008770BACFDF91CF911F910F9108959F92CF
:10339000AF92BF92CF92DF92EF92FF920F931F9363
:1033A000CF93DF93CDB7DEB761970FB6F894DEBF4A
:1033B0000FBECDBF8C0185E0F801DE011D960190A6
:1033C0000D928A95E1F7F80140815181E280909158
:1033D000EB016091EC012091EE013091EF0121159C
:1033E000310531F06F3F31F481E09F3F19F403C0A4
:1033F00081E001C080E0F82FF1709F2E80FD46C172
:10340000F801A380B4808BEEC82E81E0D82EF09016
:10341000ED01F501E21BF30BFF2009F4DFC0809101
:10342000F001E83CF10508F09BC0282F207F09F04F
:1034300052C0561313C0491311C0FE2CE1100EC028
:103440008F7080618093F0010E944D19C6010E9427
:103450009A188091F001F801858358C1AB2831F0AA
:103460005F3F31F481E04F3F19F403C081E001C0B8
:1034700080E080FD03C081E08E2502C080E090E006
:10348000F82FF170FF2E80FF1CC08091B9012091B0
:10349000BA0136E0821709F417C190E0389FF001B5
:1034A000399FF00D1124E554FE4F6181561306C07B
:1034B0006081461303C06281E61203C001968770E3
:1034C000E9CFFE2CEE2009F421C18091F00181604A
:1034D0008093F0015AC0561306C0491304C0E1108E
:1034E00002C0F8019FC04D875E878D859E850E9432
:1034F0000819882379F1EE2069F12091F001822FDB
:1035000082958F7090E0029774F08091EB0190911A
:10351000EC0198878F831986BB86AA862C87CE01FB
:1035200007960E949A1886E0F801ABEEB1E0019090
:103530000D928A95E1F70E945B190E944D190DC00A
:10354000561729F14D875E878D859E850E94081943
:1035500081112CC0C8010E949A18FF24F394D6C090
:10356000282F207F69F77A2DB98AA88A6E2D89893C
:103570000E940D198BEE91E00E949A1886E0F601E8
:1035800011928A95E9F70E944D19F12CBFC0491399
:10359000D9CFE110D7CFF8018583C8010E949A18CE
:1035A00086E0F60111928A95E9F7B0C0EE2091F21B
:1035B0002091F001822F82958F7090E002970CF499
:1035C000B2CF8091EB019091EC019A8389831B82A9
:1035D000BD82AC822E83CE010196A3CFE83CF105DB
:1035E00008F047C0FE2CEE2009F4B4CF561330C0CB
:1035F00049132EC02091F00120FD21C0822F829519
:103600008F70482F50E041155105C9F0F80125830E
:103610004F30510541F08F5F982F9295907F822F08
:103620008F70892B8583C8010E949A1886E0F80163
:10363000ABEEB1E001900D928A95E1F742C086E0D1
:10364000F801ABEEB1E001900D928A95E1F75EC012
:103650004D875E878D859E850E940819811163CFF5
:103660008091F00181608093F001C8010E949A1856
:103670004DC07A2DB98AA88A6E2D89890E940D19AC
:1036800086E0F60111928A95E9F71BC0EE2009F455
:1036900061CF4D875E878D859E850E940819F82E23
:1036A000882309F457CF86E0F801ABEEB1E0019032
:1036B0000D928A95E1F78BEE91E00E943F150E94F2
:1036C0005B190E944D1922C04D875E878D859E85AE
:1036D0000E94F01D292F22952F70223028F49F7010
:1036E00039F0811105C00BC0243028F49F7049F4D3
:1036F000805E883020F0C8010E949A189F2CF92C17
:1037000005C0F8019581907F99F7F9CF8F2D6196CB
:103710000FB6F894DEBF0FBECDBFDF91CF911F91E2
:103720000F91FF90EF90DF90CF90BF90AF909F9060
:1037300008951F93CF93DF93CDB7DEB72C970FB6C5
:10374000F894DEBF0FBECDBF4F83588769877A8755
:103750008B879C87CE0107960E94C7198823D1F0DA
:103760009F8188852A853B85232B31F08F3F31F45B
:1037700081E09F3F19F403C081E001C080E080FD3B
:1037800047C04F81588569857A858B859C850E94C5
:103790001C193EC086E0FE013796DE0111960190AD
:1037A0000D928A95E1F7FF81E8856A857B85611531
:1037B000710531F0EF3F31F481E0FF3F19F403C0B0
:1037C00081E001C080E080FD23C02091BA0130E09B
:1037D000C9010196877099274091B90150E084177B
:1037E0009507F1F1F983EA837D836C8396E0929FDC
:1037F000D001939FB00D1124A554BE4FFE01319608
:1038000001900D929A95E1F78093BA010E942C19CC
:1038100016E08091B9019091BA01891771F1189F52
:10382000C001112485549E4F0E94C719882329F195
:10383000E091B9011E9FF0011124E554FE4F408133
:10384000518162817381848195810E941C198091CC
:10385000B90190E00196877099278093B901D9CF7B
:103860000E94E0181092BA011092B901EBEEF1E05B
:1038700086E0DF011D928A95E9F72C960FB6F89441
:10388000DEBF0FBECDBFDF91CF911F910895089588
:1038900008950C94481C0C94491C0E944B1C609386
:1038A00022027093230280932402909325020C94A9
:1038B000CA180C944D1C0F931F9300912202109173
:1038C00023022091240230912502602B712B822B40
:1038D000932B1F910F910C944D1C0F931F930091EC
:1038E00022021091230220912402309125026023AC
:1038F0007123822393231F910F910C944D1C0F93DE
:103900001F930091220210912302209124023091F2
:10391000250260277127822793271F910F910C940E
:103920004D1C0C94481C0E94911C60931E027093C5
:103930001F0280932002909321020C94CA1860E029
:1039400070E0CB010C94931C0F931F9341E050E067
:1039500060E070E08A019B0104C0000F111F221F6C
:10396000331F8A95D2F7C901B8011F910F910C94AA
:10397000931C0F931F9341E050E060E070E004C09F
:10398000440F551F661F771F8A95D2F780911E023C
:1039900090911F02A0912002B09121028A019B0107
:1039A000082B192B2A2B3B2BC901B8011F910F9112
:1039B0000C94931C0F931F9341E050E060E070E083
:1039C00004C0440F551F661F771F8A95D2F7409594
:1039D00050956095709580911E0290911F02A09164
:1039E0002002B09121028A019B01082319232A2376
:1039F0003B23C901B8011F910F910C94931C0F93A5
:103A00001F9341E050E060E070E004C0440F551F98
:103A1000661F771F8A95D2F780911E0290911F0230
:103A2000A0912002B09121028A019B010827192749
:103A30002A273B27C901B8011F910F910C94931CB1
:103A40000F931F9300911E0210911F0220912002DC
:103A500030912102602B712B822B932B1F910F91A0
:103A60000C94931C0F931F9300911E0210911F0240
:103A7000209120023091210260237123822393231D
:103A80001F910F910C94931C0F931F9300911E0292
:103A900010911F022091200230912102602771278E
:103AA000822793271F910F910C94931C08952EE069
:103AB000929F800D1124E82FE695E695E695877094
:103AC00051E001C0550F8A95EAF785E0E89FF001C3
:103AD0001124EF50FE4F20E030E070E04081CB0138
:103AE000022E02C0969587950A94E2F7817081951F
:103AF00084278523842781932F5F3F4F253031050D
:103B000069F708952EE0929F800D1124682F669525
:103B100066956695982F977085E0689FB00111248F
:103B200040E050E080E0FB01E40FF51FEF50FE4F56
:103B3000208130E0092E02C0369527950A94E2F7DD
:103B400021703327042E01C0220F0A94EAF7822B3A
:103B50004F5F5F4F4530510531F70895BF92CF92C7
:103B6000DF92EF92FF920F931F93CF93DF938C011D
:103B7000C0901E02D0901F02E0902002F09021021F
:103B80008091220290912302A0912402B0912502FB
:103B9000C82AD92AEA2AFB2ACFE1D0E0D701C601F8
:103BA0000C2E04C0B695A795979587950A94D2F7E1
:103BB00080FD04C0219790F7B12C07C0BC2EB8013E
:103BC0008C2F0E94F3070197A9F38B2DDF91CF91E2
:103BD0001F910F91FF90EF90DF90CF90BF900895CD
:103BE000CF93DF93EC010E94AE1DBE010E94F3074C
:103BF000DF91CF9108951F93CF93DF93EB019091C5
:103C0000B801992321F0CB010E94F01D13C0882335
:103C100049F0CB010E94AE1D182F682FCE010E94E3
:103C2000571D04C0CB010E94821D182FBE01812F99
:103C30000E94F307DF91CF911F9108958091260292
:103C400085958595859508958091260287700895BC
:103C500090912602977081E009F480E00895CF9357
:103C60009091440292FB222720F92817E1F0C82FF7
:103C7000892FC0FB82F98093440280914302909186
:103C800044020E94401F8091330280FF0CC01F92AB
:103C9000CF9385ED99E09F938F930E94B4060F9088
:103CA0000F900F900F90CF9108958091440282FB66
:103CB000882780F991E089270C942F1E81E00C94CD
:103CC0002F1E80E00C942F1E809132020895909157
:103CD0003202892B809332020895809590913202AE
:103CE00089238093320208951092320208959091B0
:103CF0003102892B80933102089580959091310291
:103D00008923809331020895109231020895109210
:103D10003002089580912702089508950C948D1E15
:103D20000C948E1E9091440292FD08C0909127023F
:103D3000981721F0809327020C94901E089580918B
:103D40002702882329F01092270280E00C94901E0D
:103D50000895E0910101F091020180913202808387
:103D6000E0910101F0910201908180913102892B53
:103D70008083E0910101F0910201908180913002F5
:103D8000892B808380912702882381F0E0910101B3
:103D9000F09102019081892B8083809101019091A3
:103DA00002010E94CB1F81110E949F1E8091010180
:103DB000909102010C9477130C948D1E9091440203
:103DC00092FD10C098E0899F90011124262B20932A
:103DD00026020E94B91C80912602859585958595BD
:103DE0000C94DC1E0C94B91C1092260280E00C94FA
:103DF000DC1E209126028095822380932602982F34
:103E0000977041F430E0482F082E000C550B241712
:103E1000350721F49091440292FF07C0859585955E
:103E200085950E94DA1C0C94F41E08956FEF7FEFC5
:103E300080E090E00C94302980E090E00E940C2912
:103E400021E08A3E9E4F09F020E0822F089582E013
:103E500090E00C94042983E090E00C940429CF9323
:103E600084E090E00E940429C82F82E290E00E9442
:103E700004292C2F30E0A901582BCA01CF910895B5
:103E8000CF93C92F682F84E090E00E9412296C2FF5
:103E900082E290E0CF910C941229AB01BC018FE03B
:103EA00090E00C942429AB01BC0183E190E00C94D8
:103EB000242960E070E0CB010C94531F60E070E0B7
:103EC000CB010E944D1F0C94591F6AEE7EEF80E0DB
:103ED00090E00E94302960E082E090E00E94122988
:103EE00060E083E090E00E9412291092220210927A
:103EF0002302109224021092250260E084E090E0F8
:103F00000E94122960E082E290E00E94122960E0A3
:103F100085E090E00E94122960E086E090E00E9437
:103F200012296FEF87E090E00E94122940E050E0F4
:103F3000BA0188E090E00E94242960E08DE090E0E2
:103F40000E94122940E050E0BA0188E190E00E940E
:103F5000242960E087E190E00E94122940E050E0CF
:103F6000BA018CE190E00E94242960E070E080E2D8
:103F700090E00E94302940E050E0BA0188E190E0F2
:103F80000E9424290C945E1F0C94651F682F8EE0FC
:103F900090E00C941229FC01329697E080E0915059
:103FA00029F021912223D9F38F5FF9CF0895662359
:103FB00049F0FC01329608962191621729F0E81722
:103FC000F907D1F780E0089581E008959C01FC0194
:103FD00032969FEF80E04191461789F09F3F19F498
:103FE000411101C0982F8F5F8630A9F79F3F39F0AC
:103FF000F901E90FF11D97FDFA956283089508957F
:104000009C012A5F3F4FFC014281461301C012828E
:10401000019682179307B9F708950C94E61F0C9444
:104020000020029626E0FC0111922A95E9F70895F6
:1040300008950C9418200C941820CF930E941B20F4
:104040000E949D0A0E941920C0E08C2F0E94F7094F
:10405000892B29F4CF5FC530C1F780E001C081E032
:10406000CF9108950C9418200C9432208091620214
:10407000843011F00C94342008950C9418200E9480
:10408000E0180E94CA0E0E946B130E94D7070C947E
:104090003D2082E084BD93E095BD9AEF97BD80936B
:1040A0006E0008952FB7F89480915A0290915B02A8
:1040B000A0915C02B0915D022FBF08952FB7F894D4
:1040C00060915A0270915B0280915C0290915D0256
:1040D0002FBF08959C014FB7F89480915A02909198
:1040E0005B02A0915C02B0915D024FBF821B930BFB
:1040F000089578941F920F920FB60F9211248F9308
:104100009F93AF93BF9380915A0290915B02A091CD
:104110005C02B0915D020196A11DB11D80935A020F
:1041200090935B02A0935C02B0935D02BF91AF914C
:104130009F918F910F900FBE0F901F90189581E067
:104140008093E00080E28093D8001092C9008FE154
:104150009EE40197F1F700C0000087E090EBDC01DE
:1041600080936B0290936C02A0936D02B0936E02E9
:104170009CE088E10FB6F894A895809360000FBE8C
:1041800090936000FFCF90939301809392010895E4
:10419000E1E8F0E0808188608083808181608083B5
:1041A0008FB7F89420ED33E0309389002093880096
:1041B0008FBF0895EFE6F0E08081826080830895EC
:1041C000EFE6F0E080818D7F80830895EFE6F0E0F8
:1041D000908182E08927808308951F920F920FB605
:1041E0000F9211242F933F934F935F936F937F937D
:1041F0008F939F93AF93BF93EF93FF93809134027C
:10420000909135020196909335028093340281118A
:1042100003C082E00E94D707E0913502E695E6955B
:10422000F0E0E651F64FE491809134028E1303C022
:1042300080E00E94D707FF91EF91BF91AF919F91CE
:104240008F917F916F915F914F913F912F910F903F
:104250000FBE0F901F901895809141020895089508
:10426000CF93DF9300D01F92CDB7DEB7909162025B
:10427000943019F589837B836A8382E08093E90017
:104280008FEF9091E800815095FD06C095ED9A95CD
:10429000F1F700008111F5CF8091E80085FF0DC096
:1042A00040E050E063E070E0CE0101960E94F5230B
:1042B0008091E8008E778093E8000F900F900F9028
:1042C000DF91CF910895BC0184E00C943021BC01B2
:1042D00083E00C943021CF93DF9321E02093E90019
:1042E0002FEF3091E800215035FD06C035ED3A95AD
:1042F000F1F700002111F5CF2091E80025FF14C04F
:10430000EC0140E050E068E070E00E94F52380910D
:10431000E8008E778093E80088E0FE01A9E3B2E030
:1043200001900D928A95E1F7DF91CF9108958FE486
:104330009AE00E941B0680916102811109C00E94CF
:1043400086250E94E3258091E20084608093E2004C
:1043500008958BE49AE00E941B0610926102089572
:1043600087E49AE00C941B0683E49AE00E941B0603
:104370000C94DA208FE39AE00E941B060E94E02052
:104380000E946B130C94D707209137022F5F822F66
:1043900062E30E94A228992319F02093370208951E
:1043A0001092370280913802882371F18091620265
:1043B000843041F58091E9008F702091EC00922FBC
:1043C000917020FD90E8892B93E09093E900909103
:1043D000EB0090FF14C09091EE0097FF10C09091F9
:1043E000E80095FF03C01092F100F9CF9091E8002A
:1043F00090FF05C09091E8009E779093E8008F7041
:104400008093E90010923802089542E061EC81E067
:104410000E94FF2442E261EC82E00E94FF2442E21B
:1044200061EC83E00C94FF2480916402833009F4F2
:1044300060C030F4813071F0823009F499C0089581
:104440008A3009F485C08B3009F46BC0893009F0DB
:10445000A7C020C080916302813A09F0A1C0809179
:10446000E800877F8093E80080916702909168025E
:10447000892B21F468E089E392E003C060E080E0EA
:1044800090E070E00E9440248091E8008B77809358
:10449000E800089580916302813209F081C0809123
:1044A000670290916802029708F07AC08091E80054
:1044B000877F8093E8008091E80082FD05C08091AD
:1044C00062028111F8CF6CC02091F3008091F2005C
:1044D00090E0922B029729F48091F1008B7F81303C
:1044E00021F48091F100809341028091E8008B7764
:1044F00053C080916302813A09F052C080916702F3
:1045000090916802892B09F04BC08091E800877F69
:104510008093E8008091E80080FFFCCF80910D013E
:1045200036C0809163028132D9F580916702909103
:104530006802892BA9F58091E800877F8093E800C5
:104540000E9434258091650280930D010C94E0183F
:1045500080916302813221F58091E800877F80930A
:10456000E8000E94342580916602809342020895FB
:1045700080916302813AA1F48091E800877F809363
:10458000E8008091E80080FFFCCF80914202809398
:10459000F1008091E8008E778093E8000C94342538
:1045A00008959FB7F894109238029FBF90916202CD
:1045B000943009F057C09091E9009F703091EC0061
:1045C000232F217030FD20E8922B23E02093E90077
:1045D0002091EB0020FF43C02091EE0027FF3FC059
:1045E00020913602222321F02091E80025FF37C0D8
:1045F0001092360226E03091E80035FD15C030916A
:104600006202343061F53091EB0035FD28C0215055
:1046100021F481E08093360222C0EFE9FFE0319778
:10462000F1F700C00000E7CF8093F1008091E8002F
:1046300085FD0AC08091E80080FFFCCF8091E800F2
:104640008E778093E80006C08FB7F89421E020931E
:1046500038028FBF9F709093E90080E008959F70AB
:104660009093E9008FEF089584B7877F84BF0FB6DA
:10467000F894A89580916000886180936000109202
:1046800060000FBE90E080E80FB6F8948093610060
:10469000909361000FBE0E9417140E9486250E940D
:1046A000E3258091E20084608093E20078940E9488
:1046B00077280E94251483E091E00E9466130E94EF
:1046C000C8208EE29AE00E941B068091620285302B
:1046D000C9F48AE29AE00E941B068091620285304A
:1046E00079F40E943620809160028823B1F30E9401
:1046F0001D20882391F30E94DF230E94E018EDCF54
:104700000E943F200E9455140E942114DECF0C9479
:104710008923292F332723303105C9F060F4213054
:10472000310581F02230310509F041C08BE590E080
:104730002BE83AE040C021323105E1F02232310568
:1047400031F135C082E190E026EE3AE034C099279D
:104750008130910549F028F0029749F5E3E5FAE048
:1047600005C0E7E8FAE002C0EDE5FAE0849190E0E8
:104770009F0121C063307105D0F4660F771FFB01E4
:10478000E457FE4F2081318189E090E014C063300E
:10479000710568F4FB01EE0FFF1FEA57FE4F208101
:1047A0003181FB01ED57FE4F808190E004C080E035
:1047B00090E020E030E0FA0131832083089580E129
:1047C00089BD82E189BD09B400FEFDCF8091D8008A
:1047D0008F7D8093D8008091E00082608093E0001C
:1047E0008091E00081FDFCCF0895CF92DF92EF929F
:1047F000FF920F931F93CF93DF93EC018B017A010C
:104800000E945325811133C0E114F10439F0F701FE
:1048100080819181081B190BC80FD91FC12CD12C85
:104820000115110519F18091E80085FD16C08091F0
:10483000E8008E778093E800E114F10449F0F70175
:1048400080819181C80ED91ED182C08285E00FC0BF
:104850000E945325882321F30AC089918093F10097
:1048600001501109FFEFCF1ADF0ADACF80E0DF91A4
:10487000CF911F910F91FF90EF90DF90CF9008950F
:104880002091690230916A022617370748F06115B6
:10489000710539F42091E8002E772093E80001C0DB
:1048A000B901FC0120E06115710579F18091620286
:1048B0008823F1F18530F1F18091E80083FD3CC05F
:1048C0008091E80082FD2EC08091E80080FFEBCF50
:1048D0002091F3008091F20090E0922B6115710518
:1048E00051F08830910538F421912093F100615006
:1048F00071090196F3CF21E0089709F020E080913B
:10490000E8008E778093E800CECF2111CFCF0AC088
:1049100080916202882361F0853061F08091E80027
:1049200083FD0AC08091E80082FFF2CF80E0089505
:1049300082E0089583E0089581E00895209169025E
:1049400030916A022617370748F06115710539F46E
:104950002091E8002E772093E80001C0B901FC0106
:1049600020E06115710591F180916202882309F4BC
:1049700040C0853009F43FC08091E80083FD3DC010
:104980008091E80082FD2FC08091E80080FFE9CF90
:104990002091F3008091F20090E0922B6115710557
:1049A00059F08830910540F424912093F10031961C
:1049B000615071090196F2CF21E0089709F020E0DB
:1049C0008091E8008E778093E800CBCF2111CCCF87
:1049D0000AC080916202882361F0853061F0809185
:1049E000E80083FD0AC08091E80082FFF2CF80E0FA
:1049F000089582E0089583E0089581E00895982F56
:104A0000973068F59093E900981739F07091EC00B1
:104A10002091ED005091F00003C0242F762F50E03C
:104A200021FD02C09F5FECCF3091EB003E7F3093C1
:104A3000EB003091ED003D7F3093ED003091EB00C5
:104A400031603093EB007093EC002093ED005093B5
:104A5000F0002091EE0027FDE5CF80E008958F70F3
:104A60008093E90081E008958091630287FF11C07F
:104A70008091E80082FD05C0809162028111F8CF2B
:104A800011C08091E8008B770BC08091620288236F
:104A900049F08091E80080FFF8CF8091E8008E77A0
:104AA0008093E80008952091E4003091E50095E6B8
:104AB0004091EC00842F817040FF23C08091E8007A
:104AC00080FD1DC080916202882399F0853099F0A5
:104AD0008091EB0085FD11C04091E4005091E5000C
:104AE0002417350729F3915011F09A01E1CF84E0A2
:104AF000089582E0089583E0089581E0089580E0BC
:104B000008954091E80042FFDDCF08950E94F4250A
:104B10000E94FC25E0EEF0E0808181608083E8ED7A
:104B2000F0E080818F77808319BCA7EDB0E08C9195
:104B30008E7F8C9380818F7E808310926102089596
:104B40000F931F93CF93DF930E94F4250E94FC25BF
:104B5000C8EDD0E088818F778883888180688883DA
:104B600088818F7D888319BC1092620210925E0248
:104B70001092600210925F0200EE10E0F801808156
:104B80008B7F808388818160888342E060E080E061
:104B90000E94FF24E1EEF0E080818E7F8083E2EED0
:104BA000F0E0808181608083808188608083F8016B
:104BB00080818E7F8083888180618883DF91CF911F
:104BC0001F910F910895E8EDF0E080818F7E808342
:104BD000E7EDF0E080818160808384E082BF81E046
:104BE000809361020C94A025E8EDF0E080818E7F37
:104BF00080831092E20008951092DA001092E10092
:104C000008951F920F920FB60F9211242F933F9386
:104C10004F935F936F937F938F939F93AF93BF93C4
:104C2000EF93FF938091E10082FF0BC08091E2003F
:104C300082FF07C08091E1008B7F8093E1000E949A
:104C4000C4218091DA0080FF1FC08091D80080FFCE
:104C50001BC08091DA008E7F8093DA008091D900AA
:104C600080FF0DC080E189BD82E189BD09B400FEED
:104C7000FDCF81E0809362020E94972105C019BC9C
:104C8000109262020E94A9218091E10080FF19C068
:104C90008091E20080FF15C08091E2008E7F8093BA
:104CA000E2008091E20080618093E2008091D80070
:104CB00080628093D80019BC85E0809362020E94D4
:104CC000B4218091E10084FF30C08091E20084FF34
:104CD0002CC080E189BD82E189BD09B400FEFDCF11
:104CE0008091D8008F7D8093D8008091E1008F7EE5
:104CF0008093E1008091E2008F7E8093E2008091BA
:104D0000E20081608093E20080915E02882311F0CE
:104D100084E007C08091E30087FD02C081E001C00C
:104D200083E0809362020E94BA218091E10083FFB8
:104D300029C08091E20083FF25C08091E100877F38
:104D40008093E10082E08093620210925E02809183
:104D5000E1008E7F8093E1008091E2008E7F80935E
:104D6000E2008091E20080618093E20042E060E036
:104D700080E00E94FF248091F00088608093F00022
:104D80000E94B021FF91EF91BF91AF919F918F91C0
:104D90007F916F915F914F913F912F910F900FBE37
:104DA0000F901F9018951F920F920FB60F9211241B
:104DB0002F933F934F935F936F937F938F939F9323
:104DC000AF93BF93CF93DF93EF93FF93C091E9002D
:104DD000CF708091EC00D82FD17080FDD0E8109278
:104DE000E9008091F000877F8093F00078940E9422
:104DF00017271092E9008091F00088608093F000FE
:104E0000CD2BCF70C093E900FF91EF91DF91CF914F
:104E1000BF91AF919F918F917F916F915F914F91D2
:104E20003F912F910F900FBE0F901F9018951F93D9
:104E3000CF93DF93CDB7DEB7AA970FB6F894DEBF56
:104E40000FBECDBFE3E6F2E08091F100819322E056
:104E5000EB36F207C9F70E9414228091E80083FF25
:104E60002EC18091630290916402492F50E04A3034
:104E7000510508F024C1FA01EA54FF4F0C94E428CC
:104E8000803821F0823809F01AC108C080915F0291
:104E900090916002992389F082600FC0809167022F
:104EA0008F70873008F00BC18093E9008091EB0090
:104EB00085FB882780F91092E9009091E800977FA0
:104EC0009093E8008093F1001092F100D1C0282F58
:104ED0002D7F09F0F4C0882319F0823061F0EFC013
:104EE00080916502813009F0EAC0933009F080E0DA
:104EF000809360022EC08091650281112AC080914A
:104F000067028F702FEF280F263008F0D8C08093EB
:104F1000E9002091EB0020FF1CC0933021F4809128
:104F2000EB00806214C09091EB0090619093EB00D5
:104F300021E030E0A90102C0440F551F8A95E2F735
:104F40004093EA001092EA008091EB008860809321
:104F5000EB001092E9008091E800877F8093E800E1
:104F60000E943425ACC08111AAC0109165021F7740
:104F70008091E3008078812B8093E3008091E800AA
:104F8000877F8093E8000E9434258091E80080FFAD
:104F9000FCCF8091E30080688093E300111102C090
:104FA00082E001C083E08093620289C08058823031
:104FB00008F085C080916502909166028C3D53E0B7
:104FC000950779F583E08A838AE289834FB7F8945D
:104FD000DE01139620E03EE051E2E32FF0E0509333
:104FE0005700E49120FF03C0E295EF703F5FEF7040
:104FF0008E2F90E0EA3010F0C79601C0C0968D93D6
:105000009D932F5F243149F74FBF8091E800877F40
:105010008093E8006AE270E0CE0101960E9440248D
:1050200016C06091670270916802AE014F5F5F4FDA
:105030000E948723BC01892B09F441C09091E800AC
:10504000977F9093E80089819A810E949E248091A5
:10505000E8008B778093E80032C0803881F580913A
:10506000E800877F8093E80080915E028093F100E2
:105070008091E8008E7772CF811121C08091650206
:105080009091660299270297D4F48091E800877F77
:105090008093E8008091650280935E020E9434252F
:1050A00080915E02811106C08091E30087FD02C0FD
:1050B00081E001C084E0809362020E940522809119
:1050C000E80083FF0AC08091E800877F8093E800B2
:1050D0008091EB0080628093EB00AA960FB6F89463
:1050E000DEBF0FBECDBFDF91CF911F910895CF934B
:1050F000809162028823A1F0C091E900CF70909165
:10510000EC00892F817090FD80E8C82B1092E90097
:105110008091E80083FD0E941727CF70C093E900BB
:10512000CF910895DB018F939F930E94F928BF913F
:10513000AF91A29F800D911DA39F900DB29F900DE6
:1051400011240895991B79E004C0991F961708F05F
:10515000961B881F7A95C9F780950895AA1BBB1BDB
:1051600051E107C0AA1FBB1FA617B70710F0A61B67
:10517000B70B881F991F5A95A9F780959095BC0188
:10518000CD010895A1E21A2EAA1BBB1BFD010DC083
:10519000AA1FBB1FEE1FFF1FA217B307E407F507E7
:1051A00020F0A21BB30BE40BF50B661F771F881FC3
:1051B000991F1A9469F760957095809590959B0159
:1051C000AC01BD01CF010895EE0FFF1F0590F491D2
:1051D000E02D0994A29FB001B39FC001A39F700D61
:1051E000811D1124911DB29F700D811D1124911DEF
:1051F00008950E94EA28A59F900DB49F900DA49F4A
:10520000800D911D11240895F999FECF92BD81BDA5
:10521000F89A992780B50895A8E1B0E042E050E0FF
:105220000C943829262FF999FECF92BD81BDF89AAA
:10523000019700B4021639F01FBA20BD0FB6F894DA
:10524000FA9AF99A0FBE08950396272F0E94132900
:105250000E941229252F0E941329242F0C94132910
:105260000196272F0E9413290C941229DC01CB01EF
:10527000FC01F999FECF06C0F2BDE1BDF89A319666
:1052800000B40D9241505040B8F70895F894FFCF04
:105290000628022C216B212F216721632101E200C6
:1052A000E900EA00B500B600B700CD008301CC00EC
:1052B0008A0192019401210223022402250226027E
:1052C00027022A02B300B4006F007000818283338A
:1052D00090919293959667F0F1F4F5F6F7363534A0
:1052E00097C6E200E900EA00B500B600B700CD00BD
:1052F0008301CC008A01920194012102230224023D
:105300002502260227022A02B300B4006F007000B3
:105310008182834032224C0B1A0BF80A9D0AB60A8E
:02532000CF0AB2
:00000001FF
